S01B000046697273744763634170706C69636174696F6E2E7372656380
S113000045C0000053C0000051C000004FC00000B4
S11300104DC0000059C0000066C0000047C0000089
S113002045C0000043C0000041C000003FC00000C4
S11300303DC000003BC0000039C0000037C00000D4
S113004035C0000033C0000031C000002FC00000E4
S11300502DC000002BC0000029C0000027C00000F4
S113006025C0000023C0000021C000001FC0000004
S11300701DC000001BC0000019C0000017C0000014
S113008015C0000013C0000011C0000011241FBEE1
S1130090CFEFD0E1DEBFCDBF21E0A0E0B1E001C0F1
S11300A01D92A130B207E1F766D093C0A9CF82E8D0
S11300B08FBD8BE18EBD87E893E197BD86BD87E751
S11300C091E09BBD8ABD08951F920F920FB60F92C7
S11300D011248F9381E0809300018F910F900FBEC4
S11300E00F901F9018951F920F920FB60F92112424
S11300F0109200010F900FBE0F901F9018955F9BF8
S1130100FECF8CB10895882379F08AEF90E09BBDEF
S11301108ABD88EB9BE005C0E0E9F1E03197F1F797
S113012001970097C9F7089584EF91E09BBD8ABDBC
S113013088EB9BE005C0E0E9F1E03197F1F7019726
S11301400097C9F708951092900088E089B988E172
S11301508AB986E0809395008FEF8ABB87BB8FECCA
S113016082B918BAA4DF8AE08ABF80E389BF8FB757
S113017080688FBF0895CF93DF93CDB7DEB72A97FA
S11301800FB6F894DEBF0FBECDBFDDDF00E010E098
S1130190B6DFE1E0F0E0EC0FFD1FE00FF11F80831C
S11301A00F5F1F4F8D30A1F789818F3679F48A81D3
S11301B0803761F48B81853649F48C818E3631F435
S11301C08D818D3019F481E09EDFE0CF80E09BDFEC
S10901D0DDCFF894FFCF1F
S9030000FC
